:020000040800F2
:1000000018060020DD010008E5010008E7010008EE
:10001000E9010008EB010008ED0100080000000004
:100020000000000000000000000000002314000891
:10003000F101000800000000211400082514000848
:10004000F7010008F7010008F7010008F7010008B0
:10005000F7010008F7010008F7010008F7010008A0
:10006000F7010008F7010008F7010008F701000890
:10007000F7010008F7010008F7010008F701000880
:10008000C5020008D1020008F701000800000000C6
:10009000000000000000000000000000F701000860
:1000A000F7010008F7010008F7010008F701000850
:1000B000000000000000000000000000F701000840
:1000C000F7010008F7010008F7010008F701000830
:1000D000F7010008411900084D1900080000000050
:1000E000F7010008F7010008000000000000000010
:1000F000000000000000000000000000F701000800
:100100000000000000000000F701000800000000EF
:100110000000000000000000F701000800000000DF
:10012000F7010008F7010008DD020008F7010008E8
:10013000F7010008000000000000000000000000BF
:1001400000000000000000000000000000000000AF
:10015000F7010008F7010008E9020008F7010008AC
:10016000000000000000000000000000000000008F
:10017000000000000000000000000000000000007F
:10018000F7010008F701000800000000000000006F
:1001900000000000F701000800000000000000005F
:1001A000000000000000000000000000000000004F
:1001B000000000000000000000000000F70100083F
:1001C000F7010008F7010008DFF80CD000F068F82C
:1001D000004800479D19000818060020064880477F
:1001E00006480047FEE7FEE7FEE7FEE7FEE7FEE71C
:1001F000FEE7FEE7FEE7FEE7C1140008C9010008BC
:100200002DE9F05F0546002092469B46884606464B
:10021000814640241BE0284641464746224600F0DE
:100220002FF853465A46C01A914110D3114618462A
:10023000224600F016F82D1A67EB01084F462246B9
:100240000120002100F00DF817EB00094E41201E9F
:10025000A4F10104DFDC484631462A464346BDE8A6
:10026000F09F202A04DB203A00FA02F100207047B8
:100270009140C2F1200320FA03F3194390407047E4
:10028000202A04DB203A21FA02F00021704721FAEB
:1002900002F3D040C2F12002914008431946704752
:1002A000064C074D06E0E06840F0010394E80700C3
:1002B00098471034AC42F6D3FFF78AFF741A00084F
:1002C000941A0008014800F065B8000054010020AD
:1002D000014800F05FB80000B4010020014800F0C0
:1002E00059B8000094000020014800F053B8000005
:1002F000F400002001681823CAB2103AB2FBF3F2EE
:10030000054B6FF30901032A9B5CC36500D9091DE6
:100310008165084670470000541A000810B5014670
:1003200000208B698A6A4FF0C07453B1B3F5005F47
:1003300015D072B1012A0CD0022A0AD0032A09D1A1
:1003400004E01AB1012A06D0022A03D1C96AC90100
:1003500000D5012010BDC96AA142FAD010BD002A03
:10036000F7D0012AF2D0022AF3D0032AF3D010BD2D
:1003700090F83510022903D0802141650120704793
:10038000052180F835100068016821F00101016045
:10039000002070472DE9F84304464FF00009CDF8DE
:1003A000009063484FF41651A56D0068B0FBF1F75B
:1003B0002E6894F85C10082000FA01F131420FD049
:1003C00021680A6852070BD50A6822F004020A6005
:1003D00094F85C108840A860606D40F00100606592
:1003E00094F85C104FF0010808FA01F0304208D090
:1003F00021684969090604D5A860606D40F00200D3
:10040000606594F85C1004208840304208D0216870
:100410000968890704D5A860606D40F00400606534
:1004200094F85C1010208840304218D02168096888
:10043000090714D5A86020680168490304D500683D
:10044000000308D5A16C07E00168C90503D4016861
:1004500021F008010160216C09B12046884794F819
:100460005C1020208840304231D021680968C906DC
:100470002DD5A86094F8350005282068016806D0BD
:10048000490347D5006800031DD4616C1CE021F0CE
:10049000160101602068416921F080014161206CF2
:1004A00008B9A06C20B12068016821F00801016042
:1004B00094F85C103F208840A86084F8349084F859
:1004C0003580216D1FE0E16B09B120468847606DE2
:1004D00000282BD0606DC00714D0052084F83500AB
:1004E0002068016821F0010101600098401C009023
:1004F000B84203D820680068C007F6D184F8349069
:1005000084F83580E16C002910D001B02046BDE8A8
:10051000F04308470168C905D5D4016821F01001EE
:10052000016084F8349084F83580CCE7BDE8F88326
:10053000100000202DE9F041044600F037F906468E
:100540005CB1002584F83450022084F8350020681E
:10055000016821F0010101600DE00120BDE8F0819A
:1005600000F024F9801B052805D9202060650320B0
:1005700084F83500F2E720680068C007F0D12268EF
:10058000116820480140D4E901031843D4E9033637
:100590003343184363691843A3691843E369184355
:1005A000236A18430843616A042903D1D4E90B1371
:1005B00019430843106020684069666A20F007010B
:1005C00030460E43012704280CD1A06A0643E06A96
:1005D00040B12046FFF7A2FE20B14020606584F8BC
:1005E0003570BAE7206846612046FFF783FE94F82D
:1005F0005C203F2191408160656584F83570002062
:10060000ACE700003F8010F070B5044600F0CEF873
:100610000546601C02D004480078044400F0C6F887
:10062000401BA042FAD370BD040000202DE9F84F12
:10063000DFF84CB100224FF001084FF0030A4FF0F1
:100640000F090BF1040E00BF0B6808FA02F42340F7
:10065000A3427DD14D68022D01D0122D0ED1D508B7
:1006600000EB850CDCF820505607F70E09FA07F668
:10067000B5430E69BE402E43CCF820600668550095
:100680000F790AFA05FC07F0030726EA0C06AF40CB
:10069000374307604E68012E05D0022E03D0112E7D
:1006A00001D0122E0ED18768CE6827EA0C07AE4023
:1006B0003E4386604668A6430C79C4F30014944018
:1006C00034434460C4688E6824EA0C04AE40264378
:1006D000C6604C68E4004DD52A4C256845F4804539
:1006E0002560246822F0030504F480440094264C1D
:1006F0002E19D6F8084895072F0F09FA07F5AC43CD
:10070000224DA84201D100250AE0214DA84201D185
:10071000012505E01F4DA84201D1022500E0072573
:10072000BD402543C6F80858DBF800405D464E68DA
:100730009C43F60300D51C432C60DEF80040754650
:100740004E689C43B60300D51C432C600C4D00E062
:1007500010E008352C684E689C43F60200D51C4317
:100760002C60074D0C352C684E689C43B60200D5B2
:100770001C432C60521C102AFFF466AFBDE8F88FB2
:10078000003C01404438024000300140000002407B
:10079000000402400008024042694A40426170473A
:1007A0000AB1816170470904FBE7000001488068D5
:1007B000704700000400002002488168027811445C
:1007C00081607047040000200B4810B5016841F4B7
:1007D00000710160016841F480610160016841F4C9
:1007E00080710160032000F097F8002000F006F807
:1007F00000F024F8002010BD003C024070B50D4D03
:1008000004464FF47A712878B1FBF0F00A49096880
:10081000B1FBF0F000F01FFB48B9102C07D200220A
:100820002146501E00F058F800206C6070BD012079
:1008300070BD000004000020100000201F4808B513
:10084000016841F480410160006800F4804000903C
:100850001A48001F016841F080510160006800F0F3
:1008600080500090072000F057F8002211466FF0EA
:100870000B0000F031F8002211466FF00A0000F082
:100880002BF8002211466FF0090000F025F8002235
:100890001146501F00F020F800221146101F00F0F2
:1008A0001BF800221146901E00F016F80022BDE849
:1008B00008401146501E00F00FB8000044380240B6
:1008C00000F01F02012191404009800000F1E0206A
:1008D000C0F8001170470000F0B40E4B1B680C46C6
:1008E000C3F30223C3F10705042D00D90425191D04
:1008F000072901D2002300E0DB1E012606FA05F1DC
:10090000491E214099409E40761E16403143F0BC5E
:1009100000F06CBD0CED00E0064900F0070208682D
:100920004FF6FF03184040EA0220034A10430860D4
:10093000704700000CED00E00000FA052DE9F047DB
:100940000E46050065D0DFF81481D8F80000F7B234
:1009500000F00F00B04207D288F80070D8F800000D
:1009600000F00F00B04254D128683D4C810712D5E9
:10097000400703D5206840F4E05020602878000745
:1009800003D5206840F4604020602068A96820F00A
:10099000F000084320602878C0072DD030496868EF
:1009A0000839012812D0022813D0032811D0096871
:1009B000890700292DDA216821F003010143216014
:1009C000FFF7F4FE814641F2883A0EE00968890398
:1009D000EFE709688901ECE7FFF7E8FEA0EB090102
:1009E000514502D90320BDE8F0872068696800F00E
:1009F0000C00B0EB810FEFD1D8F80010404601F0A9
:100A00000F01B14207D90770006800F00F00B04233
:100A100001D00120E7E72878400705D52068E9687C
:100A200020F4E050084320602878000706D52068AD
:100A3000296920F4604040EAC100206000F03CF8E1
:100A40002168084AC1F30311515CC8400649086097
:100A50000020FFF7D3FE0020C5E70000003C024065
:100A6000083802405C1A00081000002001480068A5
:100A7000704700001000002004480549006809681C
:100A8000044AC1F38221515CC84070471000002025
:100A9000083802406C1A00080448054900680968D3
:100AA000044AC1F34231515CC84070471000002035
:100AB000083802406C1A0008154810B5006810F09C
:100AC0000C02144813D04110042A0FD0082A0ED16A
:100AD0000F4C241F2268236802F03F025B0207D5F7
:100AE0002068C0F38810A0FB010106E0084610BD95
:100AF0002168C1F38811A1FB00010023FFF780FBEF
:100B00002168C1F30141491C4900B0FBF1F010BD5F
:100B1000083802400024F4002DE9F84F054600781B
:100B2000DFF800B3C04CC0074AD0DBF800105846CD
:100B3000C1F38101012908D00068C0F381000228B7
:100B40000AD1201D0068400206D52068800337D5F1
:100B50006868002872D033E06868B0F5803F10D034
:100B6000B0F5A02F206810D020F4803020602068DD
:100B700020F4802020606868A8B1FFF717FE0646C1
:100B80000DE0206840F48030F4E740F480202060DD
:100B9000F7E700BFFFF70AFE801B64286FD82068C4
:100BA0008003F7D50CE0FFF701FE064605E000BF25
:100BB000FFF7FCFD801B6428F0D820688003F7D481
:100BC0002878DFF8688280074FF0000940D5DBF80D
:100BD0000010584611F00C0F09D00068C0F38100D6
:100BE00002280BD18F48001F0068400206D42068FD
:100BF000800715D5E868012820D111E0E868B8B170
:100C00000120C8F80000FFF7D1FD064605E000BF4F
:100C1000FFF7CCFD801B0228C0D820688007F7D5DD
:100C20002068296920F0F80040EAC10020600FE048
:100C3000C8F80090FFF7BAFD064606E0EFE000BFF7
:100C4000FFF7B4FD801B022819D820688007F7D46D
:100C50002878000722D5734E754869696C3679B1DA
:100C600001210160FFF7A2FD074604E0FFF79EFDAA
:100C7000C01B022803D830688007F7D50EE089E052
:100C8000C0F80090FFF792FD074604E0FFF78EFDE5
:100C9000C01B02287ED830688007F7D42878400728
:100CA00068D5DFF880A100270AF1380ADAF80000D9
:100CB000C0000BD4DAF8001041F08051CAF80010DF
:100CC000DAF80000012700F080500090594E30689B
:100CD000C00510D4306840F480703060FFF766FDC6
:100CE000009005E0FFF762FD0099401A022851D8F4
:100CF0003068C005F6D54B4EA868683601280FD07D
:100D00000528306810D020F001003060306820F0F5
:100D100004003060A868B8B1FFF748FD00900FE00C
:100D2000306840F00100F4E740F004003060F7E77D
:100D3000FFF73CFD0099411A41F28830814266D8A4
:100D400030688007F4D50EE0FFF730FD009007E033
:100D5000FFF72CFD0099411A41F28830814256D8A4
:100D600030688007F4D42FB1DAF8001021F08051F8
:100D7000CAF80010A869D0B3DBF80010C1F38101F4
:100D800002294CD00228484607D0C8F86000FFF777
:100D90000DFD00E03BE005463CE04746C8F860003A
:100DA000FFF704FD064604E0FFF700FD801B022864
:100DB0002DD820688001F7D4F5E907010843E968D8
:100DC0001D4A490802EB0141AA6841EA8211084321
:100DD000297C40EA0160297D40EA01711148001F29
:100DE000016001203866FFF7E1FC054605E014E0EC
:100DF000FFF7DCFC401B022809D820688001F7D5EA
:100E00000BE000BFFFF7D2FC401B022802D90320F1
:100E1000BDE8F88F20688001F4D40020F8E70120B5
:100E2000F6E7000008380240003802400000474260
:100E3000800E4742007000400000FFFF4FF0E021AD
:100E40000428086903D020F004000861704740F0CE
:100E50000400FAE7704710B5401EB0F1807F01D35F
:100E6000012010BD4FF0E02460610F21601700F0F9
:100E7000BDFA0020A06107202061002010BD10B540
:100E8000FFF7E8FF10BD704770B5026804461068B0
:100E9000D168536910F00F0F50D003F0010501F431
:100EA000907635435DD0C20705D0CA0503D5E26B05
:100EB00042F00102E263420705D5DA0703D0E26B94
:100EC00042F00202E263820705D5DA0703D0E26B43
:100ED00042F00402E263020705D5DA0703D0E26BB1
:100EE00042F00802E263E26B002A33D0800604D5A8
:100EF000880602D5204600F023FB20684069E16B9C
:100F0000C0F38010090700D428B3204600F00AFB84
:100F10002068416949061AD5416921F040014161C3
:100F2000606BA0B11B490165606BFFF721FA0028D7
:100F300010D0606B016DBDE870400847830610D586
:100F40008B060ED52046BDE8704000F0F9BA204669
:100F5000FFF799FF70BD2046FFF795FF0020E06383
:100F600070BD030606D50B0604D52046BDE87040CB
:100F700000F082BC4006F3D54806F1D5D168204682
:100F800021F04001D160202184F8391000F0B8F937
:100F900070BD00001515000870B5040004D094F869
:100FA0003900002510B106E0012070BD84F83850EA
:100FB000204600F023F8242084F839002068C16816
:100FC00021F40051C160204600F000FB2068016957
:100FD00021F4904101612068416921F02A014161B9
:100FE0002068C16841F40051C160E563202084F8A5
:100FF000390084F83A00002070BD00002DE9F04F60
:1010000004460668DFF860C102200121032207239D
:10101000DFF858810025870687B04FF4807B4FF4B6
:10102000806A66454BD1524ED6F800C04CF0100C89
:10103000C6F800C036680DF1040906F010060596E2
:101040005602009689E80F0069464046FFF7EEFA1F
:10105000494E4848B9463060C6E90175C6E9035AA9
:101060007561C6E9065B35625746D84630467562FB
:10107000FFF760FA18B17E2140A000F07FFC6663A4
:10108000B4633C48444E7830E6E802094020A1C6EB
:10109000414846F81459C6E9065835627562FFF7AB
:1010A00049FA18B1902135A000F068FC26630022AF
:1010B00011462520B463FFF70FFC25204EE0DFF832
:1010C000DCC066454CD12A4E361FD6F800C04CF421
:1010D000003CC6F800C036680DF1040906F400367D
:1010E00005960C26009689E80F0069464046FFF7F2
:1010F0009DFA2C4E2A48D0463060C6E90175C6E9F3
:10110000035A7561C6E9065B356230467562FFF7C2
:1011100011FA18B1BD2119A000F030FC6663B46368
:101120001F48214E1830E6E802074020A6E82101BA
:101130001D4846F81459B561F56135627562FFF7CF
:10114000F9F918B1CF210DA000F018FC2663002298
:1011500011462620B463FFF7BFFB2620FFF7B0FB44
:1011600007B0BDE8F08F0000001001400000024011
:101170004438024040640240940000202E2E2F5339
:1011800072632F73746D3332663478785F68616C84
:101190005F6D73702E630000F40000200044004077
:1011A0008860024054010020B401002090F83A30D9
:1011B000202B1DD1D1B1CAB190F83830012B17D0F6
:1011C00081628285C2850021C163222280F83A2093
:1011D00080F8381001684A6942F001024A610068EB
:1011E000C16841F49071C1600020704701207047D0
:1011F000022070470A230B220149024800F004B87C
:1012000000000020540000202DE9F843044690F827
:1012100039001F4616460D46202850D1A5B19EB173
:1012200094F8380001284AD0012084F838004FF0A3
:101230000008C4F83C80212084F83900FFF7B6FA92
:10124000A6848146E68426E00120BDE8F883E08C90
:10125000401EE084A0684B46B0F5805F4FF000026E
:101260004FF080012046009703D000F036FBE8B92C
:101270000DE000F032FBC8B928882168C0F30800EF
:101280004860206908B16D1C05E0AD1C03E02168D1
:1012900015F8010B4860E08C0028D8D14B4600229D
:1012A00040212046009700F018FB08B10320CCE74E
:1012B000202084F8390084F838800020C5E7022017
:1012C000C3E790F83930202B18D1A9B1A2B190F81A
:1012D0003830012B12D001628284C2840021C163A4
:1012E000212280F8392080F838100068C16841F068
:1012F0008001C160002070470120704702207047C4
:1013000070470000194808B5016841F400110160F8
:10131000016801F400110091016841F4800101604D
:101320000068002200F48000009011461020FFF7B2
:10133000D3FA1020FFF7C4FA002211461120FFF75C
:10134000CBFA1120FFF7BCFA002211463A20FFF732
:10135000C3FA3A20FFF7B4FA002211464620FFF7FD
:10136000BBFABDE808404620FFF7AABA3038024071
:1013700030B51B4887B00024016841F004010160CA
:10138000016801F004010591016841F080010160EC
:10139000016801F080010591016841F001010160DF
:1013A0000068104D00F00100059000222021284621
:1013B000FFF7F6F94FF40050CDE9000469460A48FA
:1013C0000294FFF733F9202000900120CDE90104B9
:1013D000694628460394FFF729F907B030BD00009D
:1013E0003038024000000240000802400907090EA0
:1013F000002806DA00F00F0000F1E02080F8141D4C
:10140000704700F1E02080F800147047024906227E
:1014100008700248FFF755BF0100002014000020AB
:101420007047704710B5FFF7C7F9BDE81040FFF7E8
:1014300026BD000010B5204894B00024016841F09A
:1014400080510160006800F0805012901B480168D4
:1014500041F4404101600068069400F4404012905D
:101460000220009001200390102004906846FFF7AE
:1014700053FB00B1FEE70F20CDE90D044FF480507F
:10148000CDE90F4000210DA81194FFF757FA00B1E4
:10149000FEE7FFF7EBFA4FF47A71B0FBF1F0FFF7DC
:1014A000DAFC0420FFF7CAFC00221146501EFFF7A9
:1014B00013FA14B010BD0000403802400070004024
:1014C0001048016841F4700101600F48016841F063
:1014D000010101600C4A00210832116002680B4BC7
:1014E0001A400260031D0A4A1A60026822F4802230
:1014F000026005480C3001600249580680390860D6
:101500007047000088ED00E000380240FFFFF6FE63
:101510001030002410B5806B0021C185C184FFF715
:10152000B2FC10BD0168CA6822F49072CA600168FA
:101530004A6922F001024A61202180F83A1070477E
:1015400010B590F83A10222901D0022010BD816810
:10155000B1F5805F11D00169002901681FD0496889
:1015600001F07F03816A4A1C82620B70C18D491EA3
:101570000904090CC18518D026E00269816A002A95
:101580000268526805D0D2B20A80816A491C816221
:10159000ECE7C2F308020A80816A891CF7E74A680F
:1015A000816A4B1C83620A70E0E70168CA6822F412
:1015B0009072CA6001684A6922F001024A612021E2
:1015C00080F83A10FFF716FE002010BD2DE9F0411B
:1015D00004460068016921F44052E1681143016149
:1015E0002168C86849F20C6290432369A268E569E2
:1015F0001A4363692B431A430243CA60216848694E
:1016000020F44072A06910434861E1696425B1F596
:10161000004F9748974A21684FF032083FD09142D7
:1016200001D081427CD1FFF737FA00EBC00101EB1A
:10163000001061688900B0FBF1F6FFF72DFA00EBAE
:10164000C00101EB001061688900B0FBF1F0B0FB54
:10165000F5F06FF01801484306EB800108EB01102C
:10166000B0FBF5F000F0F006FFF716FA00EBC00152
:1016700001EB001061688900B0FBF1F0B0FBF5F000
:1016800006EB0016FFF708FA00EBC00101EB0010B3
:1016900061688900B0FBF1F7FFF7FEF9D2E09142F3
:1016A00001D081423DD1FFF7F7F900EBC00101EB1A
:1016B000001061684900B0FBF1F0B0FBF5F00601E5
:1016C000FFF7EAF900EBC00101EB00106168490087
:1016D000B0FBF1F7FFF7E0F900EBC00101EB001000
:1016E00061684900B0FBF1F0B0FBF5F06FF0180154
:1016F000484307EB800108EBC100B0FBF5F000F0B8
:10170000F80006EB4006FFF7C7F900EBC00101EB5C
:10171000001061684900B0FBF1F7FFF7BDF93CE04C
:1017200055E0FFF7A9F900EBC00101EB001061687B
:101730004900B0FBF1F0B0FBF5F00601FFF79CF9B2
:1017400000EBC00101EB001061684900B0FBF1F74C
:10175000FFF792F900EBC00101EB0010616849004E
:10176000B0FBF1F0B0FBF5F06FF01801484307EB68
:10177000800108EBC100B0FBF5F000F0F80006EBCB
:101780004006FFF779F900EBC00101EB001061683A
:101790004900B0FBF1F7FFF76FF900EBC00101EB77
:1017A000001061684900B0FBF1F0B0FBF5F06FF09C
:1017B0001801484307EB800108EBC100B0FBF5F0CE
:1017C00000F00700216830448860BDE8F081FFF731
:1017D00053F900EBC00101EB001061688900B0FB18
:1017E000F1F6FFF749F900EBC00101EB0010616869
:1017F0008900B0FBF1F0B0FBF5F06FF01801484341
:1018000006EB800108EB0110B0FBF5F000F0F006EC
:10181000FFF732F900EBC00101EB001061688900AD
:10182000B0FBF1F0B0FBF5F006EB0016FFF724F982
:1018300000EBC00101EB001061688900B0FBF1F71B
:10184000FFF71AF900EBC00101EB00106168890095
:10185000B0FBF1F0B0FBF5F06FF01801484307EB77
:10186000800108EB0110B0FBF5F000F00F00A9E7D4
:10187000001401400010014090F83910212901D0D6
:10188000022070478168B1F5805F016A0BD04A1C65
:101890000262026809785160C18C491E0904090C72
:1018A000C1840ED017E009880268C1F308015160B5
:1018B00001690029016A02D0491C0162ECE7891C18
:1018C000FBE70168CA6822F08002CA600068C1684C
:1018D00041F04001C160002070472DE9F041984679
:1018E00017460E460446069D1DE0681C1BD02DB110
:1018F000FEF75CFFA0EB0800A84214D92068C1687D
:1019000021F4D071C1602068416921F00101416179
:10191000202084F8390084F83A00002084F8380048
:101920000320BDE8F0812068006836EA000004D09A
:101930000020B842D9D00020F3E70120F9E70000E9
:101940000148FFF7A1BA0000140000200148FFF78A
:101950009BBA00005400002010B5064C04E00122A0
:1019600004490548FFF722FC20783028F7D03020C2
:10197000207010BD0000002014000020FEE702E0EF
:1019800008C8121F08C1002AFAD17047704700200A
:1019900001E001C1121F002AFBD17047FEF714FFBE
:1019A000FFF748FDFFF7E4FCFFF7ACFC244D2348AC
:1019B0004FF4165628600024C5E901640C27EC603A
:1019C000C5E90447AC612846EC61FFF7E5FA00B1D0
:1019D000FEE71B481B4940300160C0E90164C46058
:1019E000C0E904478461C461FFF7D6FA00B1FEE79D
:1019F0002868C16841F02001C1602868C16841F0D1
:101A00004001C160104E114C114F3025357031200E
:101A1000FFF7FCFCFFF7A0FF20212046FEF7BCFEED
:101A20003320FFF7F3FCFFF797FF20212046FEF756
:101A3000B3FE3846FEF7E8FDE8E70000001001407D
:101A4000140000200044004000000020000002407C
:101A500020A1070000061016000610160000000066
:101A6000000000000102030406070809000000004E
:101A700001020304941A0008000000201400000072
:101A80007E190008A81A00081400002004060000AF
:101A90008E19000800300000010000001000000056
:081AA000000000000024F40026
:04000005080001C925
:00000001FF
